{
  "contractName": "ElectricCompany",
  "abi": [
    {
      "constant": true,
      "inputs": [],
      "name": "company",
      "outputs": [
        {
          "name": "",
          "type": "string"
        }
      ],
      "payable": false,
      "stateMutability": "view",
      "type": "function"
    },
    {
      "constant": true,
      "inputs": [],
      "name": "owner",
      "outputs": [
        {
          "name": "",
          "type": "address"
        }
      ],
      "payable": false,
      "stateMutability": "view",
      "type": "function"
    },
    {
      "inputs": [
        {
          "name": "_company",
          "type": "string"
        }
      ],
      "payable": false,
      "stateMutability": "nonpayable",
      "type": "constructor"
    },
    {
      "payable": true,
      "stateMutability": "payable",
      "type": "fallback"
    },
    {
      "constant": false,
      "inputs": [
        {
          "name": "_name",
          "type": "string"
        },
        {
          "name": "_streetAndNumber",
          "type": "string"
        },
        {
          "name": "_location",
          "type": "string"
        },
        {
          "name": "_province",
          "type": "string"
        },
        {
          "name": "_price",
          "type": "uint8"
        },
        {
          "name": "_timeInMonths",
          "type": "uint8"
        },
        {
          "name": "_debt",
          "type": "bool"
        }
      ],
      "name": "addPayment",
      "outputs": [
        {
          "name": "",
          "type": "uint256"
        }
      ],
      "payable": false,
      "stateMutability": "nonpayable",
      "type": "function"
    },
    {
      "constant": true,
      "inputs": [
        {
          "name": "_index",
          "type": "uint256"
        }
      ],
      "name": "getPayment",
      "outputs": [
        {
          "name": "",
          "type": "string"
        },
        {
          "name": "",
          "type": "string"
        },
        {
          "name": "",
          "type": "string"
        },
        {
          "name": "",
          "type": "string"
        },
        {
          "name": "",
          "type": "uint8"
        },
        {
          "name": "",
          "type": "uint8"
        },
        {
          "name": "",
          "type": "bool"
        }
      ],
      "payable": false,
      "stateMutability": "view",
      "type": "function"
    }
  ],
  "bytecode": "0x60806040526102bc6004556107d06005553480156200001d57600080fd5b506040516200104138038062001041833981018060405260208110156200004357600080fd5b8101908080516401000000008111156200005c57600080fd5b828101905060208101848111156200007357600080fd5b81518560018202830111640100000000821117156200009157600080fd5b5050929190505050336000806101000a81548173ffffffffffffffffffffffffffffffffffffffff021916908373ffffffffffffffffffffffffffffffffffffffff1602179055508060019080519060200190620000f1929190620000f9565b5050620001a8565b828054600181600116156101000203166002900490600052602060002090601f016020900481019282601f106200013c57805160ff19168380011785556200016d565b828001600101855582156200016d579182015b828111156200016c5782518255916020019190600101906200014f565b5b5090506200017c919062000180565b5090565b620001a591905b80821115620001a157600081600090555060010162000187565b5090565b90565b610e8980620001b86000396000f3fe60806040526004361061003f5760003560e01c80633280a8361461011d57806334797a221461033a5780636904c94d146106015780638da5cb5b14610691575b600034905060006100826005546100746064610066600454876106e890919063ffffffff16565b6106e890919063ffffffff16565b61076e90919063ffffffff16565b90506100d681600360003373ffffffffffffffffffffffffffffffffffffffff1673ffffffffffffffffffffffffffffffffffffffff168152602001908152602001600020546107fd90919063ffffffff16565b600360003373ffffffffffffffffffffffffffffffffffffffff1673ffffffffffffffffffffffffffffffffffffffff168152602001908152602001600020819055505050005b34801561012957600080fd5b506101566004803603602081101561014057600080fd5b8101908080359060200190929190505050610885565b60405180806020018060200180602001806020018860ff1660ff1681526020018760ff1660ff1681526020018615151515815260200185810385528c818151815260200191508051906020019080838360005b838110156101c45780820151818401526020810190506101a9565b50505050905090810190601f1680156101f15780820380516001836020036101000a031916815260200191505b5085810384528b818151815260200191508051906020019080838360005b8381101561022a57808201518184015260208101905061020f565b50505050905090810190601f1680156102575780820380516001836020036101000a031916815260200191505b5085810383528a818151815260200191508051906020019080838360005b83811015610290578082015181840152602081019050610275565b50505050905090810190601f1680156102bd5780820380516001836020036101000a031916815260200191505b50858103825289818151815260200191508051906020019080838360005b838110156102f65780820151818401526020810190506102db565b50505050905090810190601f1680156103235780820380516001836020036101000a031916815260200191505b509b50505050505050505050505060405180910390f35b34801561034657600080fd5b506105eb600480360360e081101561035d57600080fd5b810190808035906020019064010000000081111561037a57600080fd5b82018360208201111561038c57600080fd5b803590602001918460018302840111640100000000831117156103ae57600080fd5b91908080601f016020809104026020016040519081016040528093929190818152602001838380828437600081840152601f19601f8201169050808301925050505050505091929192908035906020019064010000000081111561041157600080fd5b82018360208201111561042357600080fd5b8035906020019184600183028401116401000000008311171561044557600080fd5b91908080601f016020809104026020016040519081016040528093929190818152602001838380828437600081840152601f19601f820116905080830192505050505050509192919290803590602001906401000000008111156104a857600080fd5b8201836020820111156104ba57600080fd5b803590602001918460018302840111640100000000831117156104dc57600080fd5b91908080601f016020809104026020016040519081016040528093929190818152602001838380828437600081840152601f19601f8201169050808301925050505050505091929192908035906020019064010000000081111561053f57600080fd5b82018360208201111561055157600080fd5b8035906020019184600183028401116401000000008311171561057357600080fd5b91908080601f016020809104026020016040519081016040528093929190818152602001838380828437600081840152601f19601f820116905080830192505050505050509192919290803560ff169060200190929190803560ff169060200190929190803515159060200190929190505050610b7e565b6040518082815260200191505060405180910390f35b34801561060d57600080fd5b50610616610cd4565b6040518080602001828103825283818151815260200191508051906020019080838360005b8381101561065657808201518184015260208101905061063b565b50505050905090810190601f1680156106835780820380516001836020036101000a031916815260200191505b509250505060405180910390f35b34801561069d57600080fd5b506106a6610d72565b604051808273ffffffffffffffffffffffffffffffffffffffff1673ffffffffffffffffffffffffffffffffffffffff16815260200191505060405180910390f35b6000808314156106fb5760009050610768565b600082840290508284828161070c57fe5b0414610763576040517f08c379a0000000000000000000000000000000000000000000000000000000008152600401808060200182810382526021815260200180610e3d6021913960400191505060405180910390fd5b809150505b92915050565b60008082116107e5576040517f08c379a000000000000000000000000000000000000000000000000000000000815260040180806020018281038252601a8152602001807f536166654d6174683a206469766973696f6e206279207a65726f00000000000081525060200191505060405180910390fd5b60008284816107f057fe5b0490508091505092915050565b60008082840190508381101561087b576040517f08c379a000000000000000000000000000000000000000000000000000000000815260040180806020018281038252601b8152602001807f536166654d6174683a206164646974696f6e206f766572666c6f77000000000081525060200191505060405180910390fd5b8091505092915050565b6060806060806000806000806002898154811061089e57fe5b90600052602060002090600502019050806000018160010182600201836003018460040160009054906101000a900460ff168560040160019054906101000a900460ff168660040160029054906101000a900460ff16868054600181600116156101000203166002900480601f0160208091040260200160405190810160405280929190818152602001828054600181600116156101000203166002900480156109895780601f1061095e57610100808354040283529160200191610989565b820191906000526020600020905b81548152906001019060200180831161096c57829003601f168201915b50505050509650858054600181600116156101000203166002900480601f016020809104026020016040519081016040528092919081815260200182805460018160011615610100020316600290048015610a255780601f106109fa57610100808354040283529160200191610a25565b820191906000526020600020905b815481529060010190602001808311610a0857829003601f168201915b50505050509550848054600181600116156101000203166002900480601f016020809104026020016040519081016040528092919081815260200182805460018160011615610100020316600290048015610ac15780601f10610a9657610100808354040283529160200191610ac1565b820191906000526020600020905b815481529060010190602001808311610aa457829003601f168201915b50505050509450838054600181600116156101000203166002900480601f016020809104026020016040519081016040528092919081815260200182805460018160011615610100020316600290048015610b5d5780601f10610b3257610100808354040283529160200191610b5d565b820191906000526020600020905b815481529060010190602001808311610b4057829003601f168201915b50505050509350975097509750975097509750975050919395979092949650565b600060026040518060e001604052808a81526020018981526020018881526020018781526020018660ff1681526020018560ff168152602001841515815250908060018154018082558091505090600182039060005260206000209060050201600090919290919091506000820151816000019080519060200190610c04929190610d97565b506020820151816001019080519060200190610c21929190610d97565b506040820151816002019080519060200190610c3e929190610d97565b506060820151816003019080519060200190610c5b929190610d97565b5060808201518160040160006101000a81548160ff021916908360ff16021790555060a08201518160040160016101000a81548160ff021916908360ff16021790555060c08201518160040160026101000a81548160ff0219169083151502179055505050506002805490509050979650505050505050565b60018054600181600116156101000203166002900480601f016020809104026020016040519081016040528092919081815260200182805460018160011615610100020316600290048015610d6a5780601f10610d3f57610100808354040283529160200191610d6a565b820191906000526020600020905b815481529060010190602001808311610d4d57829003601f168201915b505050505081565b6000809054906101000a900473ffffffffffffffffffffffffffffffffffffffff1681565b828054600181600116156101000203166002900490600052602060002090601f016020900481019282601f10610dd857805160ff1916838001178555610e06565b82800160010185558215610e06579182015b82811115610e05578251825591602001919060010190610dea565b5b509050610e139190610e17565b5090565b610e3991905b80821115610e35576000816000905550600101610e1d565b5090565b9056fe536166654d6174683a206d756c7469706c69636174696f6e206f766572666c6f77a165627a7a72305820f55cd26f481028f0d95eaa58fb3ca3d693ceb4eb45e62185de6525a3e6fd483e0029",
  "source": "pragma solidity ^0.5.0;\n\nimport 'openzeppelin-solidity/contracts/math/SafeMath.sol';\n\ncontract ElectricCompany {\n\n  address public owner;\n  string public company;\n\n  constructor(string memory _company) public {\n    owner = msg.sender;\n    company = _company;\n  }\n\n  struct Payment {\n    string name;\n    string streetAndNumber;\n    string location;\n    string province;\n    uint8 price;\n    uint8 timeInMonths;\n    bool debt;\n  }\n  Payment [] payments ;\n    \n  function addPayment( \n              string memory _name,\n              string memory _streetAndNumber,                              \n              string memory _location, \n              string memory _province,\n              uint8 _price, \n              uint8 _timeInMonths,\n              bool _debt ) public returns(uint) {\n      payments.push( \n          Payment( { name: _name, streetAndNumber: _streetAndNumber, \n              location: _location, province: _province, \n              price: _price,\n              timeInMonths: _timeInMonths,\n              debt: _debt } \n          ) \n      );\n      return payments.length;\n  }\n \n  function getPayment( uint _index ) view public \n      returns (string memory, string memory, string memory, string memory, uint8, uint8, bool) {\n      Payment storage paym = payments[_index];\n      return (paym.name, paym.streetAndNumber, paym.location, paym.province, \n       paym.price, paym.timeInMonths, paym.debt);\n  }\n\n  mapping(address => uint256) internal paymnt;\n  uint256 internal ethusd = 700; // peg to 700 dollars\n  uint256 internal rateInCents = 2000; // 2000 cents = $20.00\n  using SafeMath for uint256;\n\n  function() external payable {     \n    uint256 _wei = msg.value; // 1 Ether = 1000000000000000000\n    uint256 pay4ETH =_wei.mul(ethusd).mul(100).div(rateInCents);\n    paymnt[msg.sender] = paymnt[msg.sender].add( pay4ETH );     \n  }\n\n}\n",
  "sourcePath": "/home/smartcontract/SmartContractExample/contracts/ElectricCompany.sol",
  "compiler": {
    "name": "solc",
    "version": "0.5.8+commit.23d335f2.Emscripten.clang"
  },
  "schemaVersion": "3.0.11",
  "updatedAt": "2019-07-31T02:03:34.845Z",
  "devdoc": {
    "methods": {}
  },
  "userdoc": {
    "methods": {}
  }
}